{
  "contractName": "Decentragram",
  "abi": [
    {
      "anonymous": false,
      "inputs": [
        {
          "indexed": false,
          "internalType": "uint256",
          "name": "id",
          "type": "uint256"
        },
        {
          "indexed": false,
          "internalType": "string",
          "name": "hash",
          "type": "string"
        },
        {
          "indexed": false,
          "internalType": "string",
          "name": "description",
          "type": "string"
        },
        {
          "indexed": false,
          "internalType": "uint256",
          "name": "tipAmount",
          "type": "uint256"
        },
        {
          "indexed": false,
          "internalType": "address",
          "name": "author",
          "type": "address"
        }
      ],
      "name": "newPost",
      "type": "event"
    },
    {
      "anonymous": false,
      "inputs": [
        {
          "indexed": false,
          "internalType": "uint256",
          "name": "id",
          "type": "uint256"
        },
        {
          "indexed": false,
          "internalType": "string",
          "name": "hash",
          "type": "string"
        },
        {
          "indexed": false,
          "internalType": "string",
          "name": "description",
          "type": "string"
        },
        {
          "indexed": false,
          "internalType": "uint256",
          "name": "tipAmount",
          "type": "uint256"
        },
        {
          "indexed": false,
          "internalType": "address",
          "name": "author",
          "type": "address"
        }
      ],
      "name": "postTip",
      "type": "event"
    },
    {
      "inputs": [],
      "name": "name",
      "outputs": [
        {
          "internalType": "string",
          "name": "",
          "type": "string"
        }
      ],
      "stateMutability": "view",
      "type": "function",
      "constant": true
    },
    {
      "inputs": [],
      "name": "postCount",
      "outputs": [
        {
          "internalType": "uint256",
          "name": "",
          "type": "uint256"
        }
      ],
      "stateMutability": "view",
      "type": "function",
      "constant": true
    },
    {
      "inputs": [
        {
          "internalType": "uint256",
          "name": "",
          "type": "uint256"
        }
      ],
      "name": "posts",
      "outputs": [
        {
          "internalType": "uint256",
          "name": "id",
          "type": "uint256"
        },
        {
          "internalType": "string",
          "name": "hash",
          "type": "string"
        },
        {
          "internalType": "string",
          "name": "description",
          "type": "string"
        },
        {
          "internalType": "uint256",
          "name": "tipAmount",
          "type": "uint256"
        },
        {
          "internalType": "address",
          "name": "author",
          "type": "address"
        }
      ],
      "stateMutability": "view",
      "type": "function",
      "constant": true
    },
    {
      "inputs": [
        {
          "internalType": "string",
          "name": "_imgHash",
          "type": "string"
        },
        {
          "internalType": "string",
          "name": "_description",
          "type": "string"
        }
      ],
      "name": "uploadPost",
      "outputs": [],
      "stateMutability": "nonpayable",
      "type": "function"
    },
    {
      "inputs": [
        {
          "internalType": "uint256",
          "name": "_id",
          "type": "uint256"
        }
      ],
      "name": "tipPostOwner",
      "outputs": [],
      "stateMutability": "payable",
      "type": "function",
      "payable": true
    }
  ],
  "bytecode": "0x60806040526040518060400160405280600c81526020017f446563656e7472616772616d000000000000000000000000000000000000000081525060009080519060200190620000519291906200006b565b5060006001553480156200006457600080fd5b5062000180565b82805462000079906200014a565b90600052602060002090601f0160209004810192826200009d5760008555620000e9565b82601f10620000b857805160ff1916838001178555620000e9565b82800160010185558215620000e9579182015b82811115620000e8578251825591602001919060010190620000cb565b5b509050620000f89190620000fc565b5090565b5b8082111562000117576000816000905550600101620000fd565b5090565b7f4e487b7100000000000000000000000000000000000000000000000000000000600052602260045260246000fd5b600060028204905060018216806200016357607f821691505b602082108114156200017a57620001796200011b565b5b50919050565b610e4f80620001906000396000f3fe60806040526004361061004a5760003560e01c806306fdde031461004f5780630b1e7f831461007a5780630cb1c7ee146100bb57806317906c2e146100e4578063d6313c061461010f575b600080fd5b34801561005b57600080fd5b5061006461012b565b6040516100719190610932565b60405180910390f35b34801561008657600080fd5b506100a1600480360381019061009c919061099e565b6101b9565b6040516100b2959493929190610a1b565b60405180910390f35b3480156100c757600080fd5b506100e260048036038101906100dd9190610bb1565b61031f565b005b3480156100f057600080fd5b506100f96104c0565b6040516101069190610c29565b60405180910390f35b6101296004803603810190610124919061099e565b6104c6565b005b6000805461013890610c73565b80601f016020809104026020016040519081016040528092919081815260200182805461016490610c73565b80156101b15780601f10610186576101008083540402835291602001916101b1565b820191906000526020600020905b81548152906001019060200180831161019457829003601f168201915b505050505081565b60026020528060005260406000206000915090508060000154908060010180546101e290610c73565b80601f016020809104026020016040519081016040528092919081815260200182805461020e90610c73565b801561025b5780601f106102305761010080835404028352916020019161025b565b820191906000526020600020905b81548152906001019060200180831161023e57829003601f168201915b50505050509080600201805461027090610c73565b80601f016020809104026020016040519081016040528092919081815260200182805461029c90610c73565b80156102e95780601f106102be576101008083540402835291602001916102e9565b820191906000526020600020905b8154815290600101906020018083116102cc57829003601f168201915b5050505050908060030154908060040160009054906101000a900473ffffffffffffffffffffffffffffffffffffffff16905085565b600081511161032d57600080fd5b600082511161033b57600080fd5b600073ffffffffffffffffffffffffffffffffffffffff163373ffffffffffffffffffffffffffffffffffffffff16141561037557600080fd5b6001600081548092919061038890610cd4565b91905055506040518060a001604052806001548152602001838152602001828152602001600081526020013373ffffffffffffffffffffffffffffffffffffffff168152506002600060015481526020019081526020016000206000820151816000015560208201518160010190805190602001906104089291906107f6565b5060408201518160020190805190602001906104259291906107f6565b506060820151816003015560808201518160040160006101000a81548173ffffffffffffffffffffffffffffffffffffffff021916908373ffffffffffffffffffffffffffffffffffffffff1602179055509050507f18651337bc57d9527cba172c89e27b84cd92218c8a935ef7a81cf65e429225eb60015483836000336040516104b4959493929190610d62565b60405180910390a15050565b60015481565b6000811180156104d857506001548111155b6104e157600080fd5b6000600260008381526020019081526020016000206040518060a00160405290816000820154815260200160018201805461051b90610c73565b80601f016020809104026020016040519081016040528092919081815260200182805461054790610c73565b80156105945780601f1061056957610100808354040283529160200191610594565b820191906000526020600020905b81548152906001019060200180831161057757829003601f168201915b505050505081526020016002820180546105ad90610c73565b80601f01602080910402602001604051908101604052809291908181526020018280546105d990610c73565b80156106265780601f106105fb57610100808354040283529160200191610626565b820191906000526020600020905b81548152906001019060200180831161060957829003601f168201915b50505050508152602001600382015481526020016004820160009054906101000a900473ffffffffffffffffffffffffffffffffffffffff1673ffffffffffffffffffffffffffffffffffffffff1673ffffffffffffffffffffffffffffffffffffffff168152505090506000816080015190508073ffffffffffffffffffffffffffffffffffffffff166108fc349081150290604051600060405180830381858888f193505050501580156106e0573d6000803e3d6000fd5b503482606001516106f19190610dc3565b82606001818152505081600260008581526020019081526020016000206000820151816000015560208201518160010190805190602001906107349291906107f6565b5060408201518160020190805190602001906107519291906107f6565b506060820151816003015560808201518160040160006101000a81548173ffffffffffffffffffffffffffffffffffffffff021916908373ffffffffffffffffffffffffffffffffffffffff1602179055509050507fbbf389d5ff9e8754bcb7e6f37437ece7f1dc71e0f083ac5f38c435cfd2de7d4483836020015184604001518560600151856040516107e9959493929190610a1b565b60405180910390a1505050565b82805461080290610c73565b90600052602060002090601f016020900481019282610824576000855561086b565b82601f1061083d57805160ff191683800117855561086b565b8280016001018555821561086b579182015b8281111561086a57825182559160200191906001019061084f565b5b509050610878919061087c565b5090565b5b8082111561089557600081600090555060010161087d565b5090565b600081519050919050565b600082825260208201905092915050565b60005b838110156108d35780820151818401526020810190506108b8565b838111156108e2576000848401525b50505050565b6000601f19601f8301169050919050565b600061090482610899565b61090e81856108a4565b935061091e8185602086016108b5565b610927816108e8565b840191505092915050565b6000602082019050818103600083015261094c81846108f9565b905092915050565b6000604051905090565b600080fd5b600080fd5b6000819050919050565b61097b81610968565b811461098657600080fd5b50565b60008135905061099881610972565b92915050565b6000602082840312156109b4576109b361095e565b5b60006109c284828501610989565b91505092915050565b6109d481610968565b82525050565b600073ffffffffffffffffffffffffffffffffffffffff82169050919050565b6000610a05826109da565b9050919050565b610a15816109fa565b82525050565b600060a082019050610a3060008301886109cb565b8181036020830152610a4281876108f9565b90508181036040830152610a5681866108f9565b9050610a6560608301856109cb565b610a726080830184610a0c565b9695505050505050565b600080fd5b600080fd5b7f4e487b7100000000000000000000000000000000000000000000000000000000600052604160045260246000fd5b610abe826108e8565b810181811067ffffffffffffffff82111715610add57610adc610a86565b5b80604052505050565b6000610af0610954565b9050610afc8282610ab5565b919050565b600067ffffffffffffffff821115610b1c57610b1b610a86565b5b610b25826108e8565b9050602081019050919050565b82818337600083830152505050565b6000610b54610b4f84610b01565b610ae6565b905082815260208101848484011115610b7057610b6f610a81565b5b610b7b848285610b32565b509392505050565b600082601f830112610b9857610b97610a7c565b5b8135610ba8848260208601610b41565b91505092915050565b60008060408385031215610bc857610bc761095e565b5b600083013567ffffffffffffffff811115610be657610be5610963565b5b610bf285828601610b83565b925050602083013567ffffffffffffffff811115610c1357610c12610963565b5b610c1f85828601610b83565b9150509250929050565b6000602082019050610c3e60008301846109cb565b92915050565b7f4e487b7100000000000000000000000000000000000000000000000000000000600052602260045260246000fd5b60006002820490506001821680610c8b57607f821691505b60208210811415610c9f57610c9e610c44565b5b50919050565b7f4e487b7100000000000000000000000000000000000000000000000000000000600052601160045260246000fd5b6000610cdf82610968565b91507fffffffffffffffffffffffffffffffffffffffffffffffffffffffffffffffff821415610d1257610d11610ca5565b5b600182019050919050565b6000819050919050565b6000819050919050565b6000610d4c610d47610d4284610d1d565b610d27565b610968565b9050919050565b610d5c81610d31565b82525050565b600060a082019050610d7760008301886109cb565b8181036020830152610d8981876108f9565b90508181036040830152610d9d81866108f9565b9050610dac6060830185610d53565b610db96080830184610a0c565b9695505050505050565b6000610dce82610968565b9150610dd983610968565b9250827fffffffffffffffffffffffffffffffffffffffffffffffffffffffffffffffff03821115610e0e57610e0d610ca5565b5b82820190509291505056fea2646970667358221220f43dd8940cd10fd16a458312c1e32561763b709401ab041e315fa0dfdcdaccd764736f6c634300080b0033",
  "immutableReferences": {},
  "source": "// SPDX-License-Identifier: MIT\r\npragma solidity >=0.4.22 <0.9.0;\r\n\r\ncontract Decentragram {\r\n    string public name = 'Decentragram';\r\n    uint256 public postCount = 0;\r\n    mapping(uint256 => Post) public posts;\r\n\r\n    struct Post {\r\n        uint256 id;\r\n        string hash;\r\n        string description;\r\n        uint256 tipAmount;\r\n        address author;\r\n    }\r\n\r\n    event newPost(\r\n        uint256 id,\r\n        string hash,\r\n        string description,\r\n        uint256 tipAmount,\r\n        address author\r\n    );\r\n\r\n    event postTip(\r\n        uint256 id,\r\n        string hash,\r\n        string description,\r\n        uint256 tipAmount,\r\n        address author\r\n    );\r\n\r\n    function uploadPost(string memory _imgHash, string memory _description)\r\n        public\r\n    {\r\n        require(bytes(_description).length > 0);\r\n        require(bytes(_imgHash).length > 0);\r\n        require(msg.sender != address(0));\r\n\r\n        postCount++;\r\n\r\n        posts[postCount] = Post(\r\n            postCount,\r\n            _imgHash,\r\n            _description,\r\n            0,\r\n            msg.sender\r\n        );\r\n\r\n        emit newPost(postCount, _imgHash, _description, 0, msg.sender);\r\n    }\r\n\r\n    function tipPostOwner(uint256 _id) public payable {\r\n        require(_id > 0 && _id <= postCount);\r\n\r\n        Post memory _post = posts[_id];\r\n        address _author = _post.author;\r\n        payable(address(_author)).transfer(msg.value);\r\n        _post.tipAmount = _post.tipAmount + msg.value;\r\n        posts[_id] = _post;\r\n\r\n        emit postTip(\r\n            _id,\r\n            _post.hash,\r\n            _post.description,\r\n            _post.tipAmount,\r\n            _author\r\n        );\r\n    }\r\n}\r\n",
  "sourcePath": "C:\\Users\\naman\\Desktop\\decentragram\\apps\\client\\src\\contracts\\Decentragram.sol",
  "compiler": {
    "name": "solc",
    "version": "0.8.11+commit.d7f03943.Emscripten.clang"
  },
  "schemaVersion": "3.4.4",
  "updatedAt": "2022-02-04T10:46:01.507Z",
  "networkType": "ethereum",
  "devdoc": {
    "kind": "dev",
    "methods": {},
    "version": 1
  },
  "userdoc": {
    "kind": "user",
    "methods": {},
    "version": 1
  }
}